{
  "_format": "hh-sol-artifact-1",
  "contractName": "SweepstakeUma",
  "sourceName": "contracts/SweepstakeUma.sol",
  "abi": [
    {
      "inputs": [],
      "stateMutability": "nonpayable",
      "type": "constructor"
    },
    {
      "inputs": [],
      "name": "NotAdmin",
      "type": "error"
    },
    {
      "anonymous": false,
      "inputs": [
        {
          "indexed": true,
          "internalType": "address",
          "name": "admin",
          "type": "address"
        },
        {
          "indexed": true,
          "internalType": "address",
          "name": "newAdminAddress",
          "type": "address"
        }
      ],
      "name": "NewAdmin",
      "type": "event"
    },
    {
      "anonymous": false,
      "inputs": [
        {
          "indexed": true,
          "internalType": "bytes32",
          "name": "questionID",
          "type": "bytes32"
        },
        {
          "indexed": false,
          "internalType": "bytes",
          "name": "ancillaryData",
          "type": "bytes"
        }
      ],
      "name": "QuestionInitialized",
      "type": "event"
    },
    {
      "anonymous": false,
      "inputs": [
        {
          "indexed": true,
          "internalType": "address",
          "name": "admin",
          "type": "address"
        },
        {
          "indexed": true,
          "internalType": "address",
          "name": "removedAdmin",
          "type": "address"
        }
      ],
      "name": "RemovedAdmin",
      "type": "event"
    },
    {
      "inputs": [
        {
          "internalType": "address",
          "name": "admin",
          "type": "address"
        }
      ],
      "name": "addAdmin",
      "outputs": [],
      "stateMutability": "nonpayable",
      "type": "function"
    },
    {
      "inputs": [
        {
          "internalType": "address",
          "name": "",
          "type": "address"
        }
      ],
      "name": "admins",
      "outputs": [
        {
          "internalType": "uint256",
          "name": "",
          "type": "uint256"
        }
      ],
      "stateMutability": "view",
      "type": "function"
    },
    {
      "inputs": [
        {
          "internalType": "bytes32",
          "name": "questionID",
          "type": "bytes32"
        }
      ],
      "name": "getSateData",
      "outputs": [
        {
          "internalType": "enum IOptimisticOracleV2.State",
          "name": "",
          "type": "uint8"
        }
      ],
      "stateMutability": "view",
      "type": "function"
    },
    {
      "inputs": [
        {
          "internalType": "bytes32",
          "name": "questionID",
          "type": "bytes32"
        }
      ],
      "name": "getSettledData",
      "outputs": [
        {
          "internalType": "int256",
          "name": "",
          "type": "int256"
        }
      ],
      "stateMutability": "view",
      "type": "function"
    },
    {
      "inputs": [
        {
          "internalType": "address",
          "name": "addr",
          "type": "address"
        }
      ],
      "name": "isAdmin",
      "outputs": [
        {
          "internalType": "bool",
          "name": "",
          "type": "bool"
        }
      ],
      "stateMutability": "view",
      "type": "function"
    },
    {
      "inputs": [],
      "name": "liveness",
      "outputs": [
        {
          "internalType": "uint256",
          "name": "",
          "type": "uint256"
        }
      ],
      "stateMutability": "view",
      "type": "function"
    },
    {
      "inputs": [
        {
          "internalType": "bytes32",
          "name": "",
          "type": "bytes32"
        }
      ],
      "name": "questions",
      "outputs": [
        {
          "internalType": "string",
          "name": "creator",
          "type": "string"
        },
        {
          "internalType": "string",
          "name": "marketID",
          "type": "string"
        },
        {
          "internalType": "bytes",
          "name": "ancillaryData",
          "type": "bytes"
        },
        {
          "internalType": "bool",
          "name": "resolved",
          "type": "bool"
        }
      ],
      "stateMutability": "view",
      "type": "function"
    },
    {
      "inputs": [
        {
          "internalType": "address",
          "name": "admin",
          "type": "address"
        }
      ],
      "name": "removeAdmin",
      "outputs": [],
      "stateMutability": "nonpayable",
      "type": "function"
    },
    {
      "inputs": [],
      "name": "renounceAdmin",
      "outputs": [],
      "stateMutability": "nonpayable",
      "type": "function"
    },
    {
      "inputs": [
        {
          "internalType": "string",
          "name": "creator",
          "type": "string"
        },
        {
          "internalType": "string",
          "name": "marketID",
          "type": "string"
        },
        {
          "internalType": "string",
          "name": "ancillaryString",
          "type": "string"
        }
      ],
      "name": "requestData",
      "outputs": [
        {
          "internalType": "bytes32",
          "name": "questionID",
          "type": "bytes32"
        }
      ],
      "stateMutability": "nonpayable",
      "type": "function"
    },
    {
      "inputs": [
        {
          "internalType": "uint256",
          "name": "_liveness",
          "type": "uint256"
        }
      ],
      "name": "setLiveness",
      "outputs": [],
      "stateMutability": "nonpayable",
      "type": "function"
    },
    {
      "inputs": [
        {
          "internalType": "bytes32",
          "name": "questionID",
          "type": "bytes32"
        }
      ],
      "name": "settleRequest",
      "outputs": [],
      "stateMutability": "nonpayable",
      "type": "function"
    }
  ],
  "bytecode": "0x60806040527338fac33bd20d4c4cce085c0f347153c06cba2968600160006101000a81548173ffffffffffffffffffffffffffffffffffffffff021916908373ffffffffffffffffffffffffffffffffffffffff1602179055507f5945535f4f525f4e4f5f51554552590000000000000000000000000000000000600255600060035534801561008e57600080fd5b5060016000803373ffffffffffffffffffffffffffffffffffffffff1673ffffffffffffffffffffffffffffffffffffffff16815260200190815260200160002081905550601e60058190555061245b806100ea6000396000f3fe608060405234801561001057600080fd5b50600436106100b45760003560e01c80636ad0690a116100715780636ad0690a146101b157806370480275146101cf5780638bad0c0a146101eb57806394c5d4fe146101f557806395addb9014610211578063bdb9e4db14610244576100b4565b8063021eb009146100b95780631785f53c146100d557806320147a0b146100f157806324d7806c146101215780632914a53714610151578063429b62e514610181575b600080fd5b6100d360048036038101906100ce919061151e565b610274565b005b6100ef60048036038101906100ea91906115a9565b6102f6565b005b61010b6004803603810190610106919061160c565b61040f565b6040516101189190611652565b60405180910390f35b61013b600480360381019061013691906115a9565b6106ba565b6040516101489190611688565b60405180910390f35b61016b6004803603810190610166919061160c565b610705565b604051610178919061171a565b60405180910390f35b61019b600480360381019061019691906115a9565b6109ab565b6040516101a89190611744565b60405180910390f35b6101b96109c3565b6040516101c69190611744565b60405180910390f35b6101e960048036038101906101e491906115a9565b6109c9565b005b6101f3610ae2565b005b61020f600480360381019061020a919061160c565b610bfa565b005b61022b6004803603810190610226919061160c565b610f30565b60405161023b949392919061184d565b60405180910390f35b61025e60048036038101906102599190611a3c565b611105565b60405161026b9190611afc565b60405180910390f35b60016000803373ffffffffffffffffffffffffffffffffffffffff1673ffffffffffffffffffffffffffffffffffffffff16815260200190815260200160002054146102ec576040517f7bfa4b9f00000000000000000000000000000000000000000000000000000000815260040160405180910390fd5b8060058190555050565b60016000803373ffffffffffffffffffffffffffffffffffffffff1673ffffffffffffffffffffffffffffffffffffffff168152602001908152602001600020541461036e576040517f7bfa4b9f00000000000000000000000000000000000000000000000000000000815260040160405180910390fd5b60008060008373ffffffffffffffffffffffffffffffffffffffff1673ffffffffffffffffffffffffffffffffffffffff168152602001908152602001600020819055508073ffffffffffffffffffffffffffffffffffffffff163373ffffffffffffffffffffffffffffffffffffffff167f787a2e12f4a55b658b8f573c32432ee11a5e8b51677d1e1e937aaf6a0bb5776e60405160405180910390a350565b6000806004600084815260200190815260200160002060405180608001604052908160008201805461044090611b46565b80601f016020809104026020016040519081016040528092919081815260200182805461046c90611b46565b80156104b95780601f1061048e576101008083540402835291602001916104b9565b820191906000526020600020905b81548152906001019060200180831161049c57829003601f168201915b505050505081526020016001820180546104d290611b46565b80601f01602080910402602001604051908101604052809291908181526020018280546104fe90611b46565b801561054b5780601f106105205761010080835404028352916020019161054b565b820191906000526020600020905b81548152906001019060200180831161052e57829003601f168201915b5050505050815260200160028201805461056490611b46565b80601f016020809104026020016040519081016040528092919081815260200182805461059090611b46565b80156105dd5780601f106105b2576101008083540402835291602001916105dd565b820191906000526020600020905b8154815290600101906020018083116105c057829003601f168201915b505050505081526020016003820160009054906101000a900460ff1615151515815250509050600160009054906101000a900473ffffffffffffffffffffffffffffffffffffffff1673ffffffffffffffffffffffffffffffffffffffff1663a9904f9b3060025460035485604001516040518563ffffffff1660e01b815260040161066c9493929190611b86565b61020060405180830381865afa15801561068a573d6000803e3d6000fd5b505050506040513d601f19601f820116820180604052508101906106ae9190611e44565b60c00151915050919050565b600060016000808473ffffffffffffffffffffffffffffffffffffffff1673ffffffffffffffffffffffffffffffffffffffff16815260200190815260200160002054149050919050565b6000806004600084815260200190815260200160002060405180608001604052908160008201805461073690611b46565b80601f016020809104026020016040519081016040528092919081815260200182805461076290611b46565b80156107af5780601f10610784576101008083540402835291602001916107af565b820191906000526020600020905b81548152906001019060200180831161079257829003601f168201915b505050505081526020016001820180546107c890611b46565b80601f01602080910402602001604051908101604052809291908181526020018280546107f490611b46565b80156108415780601f1061081657610100808354040283529160200191610841565b820191906000526020600020905b81548152906001019060200180831161082457829003601f168201915b5050505050815260200160028201805461085a90611b46565b80601f016020809104026020016040519081016040528092919081815260200182805461088690611b46565b80156108d35780601f106108a8576101008083540402835291602001916108d3565b820191906000526020600020905b8154815290600101906020018083116108b657829003601f168201915b505050505081526020016003820160009054906101000a900460ff1615151515815250509050600160009054906101000a900473ffffffffffffffffffffffffffffffffffffffff1673ffffffffffffffffffffffffffffffffffffffff1663ba4b930c3060025460035485604001516040518563ffffffff1660e01b81526004016109629493929190611b86565b602060405180830381865afa15801561097f573d6000803e3d6000fd5b505050506040513d601f19601f820116820180604052508101906109a39190611e97565b915050919050565b60006020528060005260406000206000915090505481565b60055481565b60016000803373ffffffffffffffffffffffffffffffffffffffff1673ffffffffffffffffffffffffffffffffffffffff1681526020019081526020016000205414610a41576040517f7bfa4b9f00000000000000000000000000000000000000000000000000000000815260040160405180910390fd5b60016000808373ffffffffffffffffffffffffffffffffffffffff1673ffffffffffffffffffffffffffffffffffffffff168152602001908152602001600020819055508073ffffffffffffffffffffffffffffffffffffffff163373ffffffffffffffffffffffffffffffffffffffff167ff9ffabca9c8276e99321725bcb43fb076a6c66a54b7f21c4e8146d8519b417dc60405160405180910390a350565b60016000803373ffffffffffffffffffffffffffffffffffffffff1673ffffffffffffffffffffffffffffffffffffffff1681526020019081526020016000205414610b5a576040517f7bfa4b9f00000000000000000000000000000000000000000000000000000000815260040160405180910390fd5b60008060003373ffffffffffffffffffffffffffffffffffffffff1673ffffffffffffffffffffffffffffffffffffffff168152602001908152602001600020819055503373ffffffffffffffffffffffffffffffffffffffff163373ffffffffffffffffffffffffffffffffffffffff167f787a2e12f4a55b658b8f573c32432ee11a5e8b51677d1e1e937aaf6a0bb5776e60405160405180910390a3565b60016000803373ffffffffffffffffffffffffffffffffffffffff1673ffffffffffffffffffffffffffffffffffffffff1681526020019081526020016000205414610c72576040517f7bfa4b9f00000000000000000000000000000000000000000000000000000000815260040160405180910390fd5b600060046000838152602001908152602001600020604051806080016040529081600082018054610ca290611b46565b80601f0160208091040260200160405190810160405280929190818152602001828054610cce90611b46565b8015610d1b5780601f10610cf057610100808354040283529160200191610d1b565b820191906000526020600020905b815481529060010190602001808311610cfe57829003601f168201915b50505050508152602001600182018054610d3490611b46565b80601f0160208091040260200160405190810160405280929190818152602001828054610d6090611b46565b8015610dad5780601f10610d8257610100808354040283529160200191610dad565b820191906000526020600020905b815481529060010190602001808311610d9057829003601f168201915b50505050508152602001600282018054610dc690611b46565b80601f0160208091040260200160405190810160405280929190818152602001828054610df290611b46565b8015610e3f5780601f10610e1457610100808354040283529160200191610e3f565b820191906000526020600020905b815481529060010190602001808311610e2257829003601f168201915b505050505081526020016003820160009054906101000a900460ff1615151515815250509050600160009054906101000a900473ffffffffffffffffffffffffffffffffffffffff1673ffffffffffffffffffffffffffffffffffffffff16635e9a79a93060025460035485604001516040518563ffffffff1660e01b8152600401610ece9493929190611b86565b6020604051808303816000875af1158015610eed573d6000803e3d6000fd5b505050506040513d601f19601f82011682018060405250810190610f119190611ec4565b50610f2c828260000151836020015184604001516001611432565b5050565b6004602052806000526040600020600091509050806000018054610f5390611b46565b80601f0160208091040260200160405190810160405280929190818152602001828054610f7f90611b46565b8015610fcc5780601f10610fa157610100808354040283529160200191610fcc565b820191906000526020600020905b815481529060010190602001808311610faf57829003601f168201915b505050505090806001018054610fe190611b46565b80601f016020809104026020016040519081016040528092919081815260200182805461100d90611b46565b801561105a5780601f1061102f5761010080835404028352916020019161105a565b820191906000526020600020905b81548152906001019060200180831161103d57829003601f168201915b50505050509080600201805461106f90611b46565b80601f016020809104026020016040519081016040528092919081815260200182805461109b90611b46565b80156110e85780601f106110bd576101008083540402835291602001916110e8565b820191906000526020600020905b8154815290600101906020018083116110cb57829003601f168201915b5050505050908060030160009054906101000a900460ff16905084565b600060016000803373ffffffffffffffffffffffffffffffffffffffff1673ffffffffffffffffffffffffffffffffffffffff168152602001908152602001600020541461117f576040517f7bfa4b9f00000000000000000000000000000000000000000000000000000000815260040160405180910390fd5b426003819055506000739b4a302a548c7e313c2b74c461db7b84d3074a8490506000808490508080519060200120935060006004600086815260200190815260200160002060020180546111d290611b46565b905014611214576040517f08c379a000000000000000000000000000000000000000000000000000000000815260040161120b90611f3d565b60405180910390fd5b6112aa848a8a8080601f016020809104026020016040519081016040528093929190818152602001838380828437600081840152601f19601f8201169050808301925050505050505089898080601f016020809104026020016040519081016040528093929190818152602001838380828437600081840152601f19601f82011690508083019250505050505050846000611432565b600160009054906101000a900473ffffffffffffffffffffffffffffffffffffffff1673ffffffffffffffffffffffffffffffffffffffff166311df92f16002546003548487876040518663ffffffff1660e01b8152600401611311959493929190611fbc565b6020604051808303816000875af1158015611330573d6000803e3d6000fd5b505050506040513d601f19601f820116820180604052508101906113549190611ec4565b50600160009054906101000a900473ffffffffffffffffffffffffffffffffffffffff1673ffffffffffffffffffffffffffffffffffffffff1663473c45fe600254600354846005546040518563ffffffff1660e01b81526004016113bc9493929190612016565b600060405180830381600087803b1580156113d657600080fd5b505af11580156113ea573d6000803e3d6000fd5b50505050837ff0f7f4e8df0afc32374e8c8a070dd345a4b6321861869a555976c21703f73d9a8260405161141e9190612062565b60405180910390a250505095945050505050565b604051806080016040528085815260200184815260200183815260200182151581525060046000878152602001908152602001600020600082015181600001908161147d9190612226565b5060208201518160010190816114939190612226565b5060408201518160020190816114a99190612353565b5060608201518160030160006101000a81548160ff0219169083151502179055509050505050505050565b6000604051905090565b600080fd5b600080fd5b6000819050919050565b6114fb816114e8565b811461150657600080fd5b50565b600081359050611518816114f2565b92915050565b600060208284031215611534576115336114de565b5b600061154284828501611509565b91505092915050565b600073ffffffffffffffffffffffffffffffffffffffff82169050919050565b60006115768261154b565b9050919050565b6115868161156b565b811461159157600080fd5b50565b6000813590506115a38161157d565b92915050565b6000602082840312156115bf576115be6114de565b5b60006115cd84828501611594565b91505092915050565b6000819050919050565b6115e9816115d6565b81146115f457600080fd5b50565b600081359050611606816115e0565b92915050565b600060208284031215611622576116216114de565b5b6000611630848285016115f7565b91505092915050565b6000819050919050565b61164c81611639565b82525050565b60006020820190506116676000830184611643565b92915050565b60008115159050919050565b6116828161166d565b82525050565b600060208201905061169d6000830184611679565b92915050565b7f4e487b7100000000000000000000000000000000000000000000000000000000600052602160045260246000fd5b600781106116e3576116e26116a3565b5b50565b60008190506116f4826116d2565b919050565b6000611704826116e6565b9050919050565b611714816116f9565b82525050565b600060208201905061172f600083018461170b565b92915050565b61173e816114e8565b82525050565b60006020820190506117596000830184611735565b92915050565b600081519050919050565b600082825260208201905092915050565b60005b8381101561179957808201518184015260208101905061177e565b838111156117a8576000848401525b50505050565b6000601f19601f8301169050919050565b60006117ca8261175f565b6117d4818561176a565b93506117e481856020860161177b565b6117ed816117ae565b840191505092915050565b600081519050919050565b600082825260208201905092915050565b600061181f826117f8565b6118298185611803565b935061183981856020860161177b565b611842816117ae565b840191505092915050565b6000608082019050818103600083015261186781876117bf565b9050818103602083015261187b81866117bf565b9050818103604083015261188f8185611814565b905061189e6060830184611679565b95945050505050565b600080fd5b600080fd5b600080fd5b60008083601f8401126118cc576118cb6118a7565b5b8235905067ffffffffffffffff8111156118e9576118e86118ac565b5b602083019150836001820283011115611905576119046118b1565b5b9250929050565b600080fd5b7f4e487b7100000000000000000000000000000000000000000000000000000000600052604160045260246000fd5b611949826117ae565b810181811067ffffffffffffffff8211171561196857611967611911565b5b80604052505050565b600061197b6114d4565b90506119878282611940565b919050565b600067ffffffffffffffff8211156119a7576119a6611911565b5b6119b0826117ae565b9050602081019050919050565b82818337600083830152505050565b60006119df6119da8461198c565b611971565b9050828152602081018484840111156119fb576119fa61190c565b5b611a068482856119bd565b509392505050565b600082601f830112611a2357611a226118a7565b5b8135611a338482602086016119cc565b91505092915050565b600080600080600060608688031215611a5857611a576114de565b5b600086013567ffffffffffffffff811115611a7657611a756114e3565b5b611a82888289016118b6565b9550955050602086013567ffffffffffffffff811115611aa557611aa46114e3565b5b611ab1888289016118b6565b9350935050604086013567ffffffffffffffff811115611ad457611ad36114e3565b5b611ae088828901611a0e565b9150509295509295909350565b611af6816115d6565b82525050565b6000602082019050611b116000830184611aed565b92915050565b7f4e487b7100000000000000000000000000000000000000000000000000000000600052602260045260246000fd5b60006002820490506001821680611b5e57607f821691505b602082108103611b7157611b70611b17565b5b50919050565b611b808161156b565b82525050565b6000608082019050611b9b6000830187611b77565b611ba86020830186611aed565b611bb56040830185611735565b8181036060830152611bc78184611814565b905095945050505050565b600080fd5b600081519050611be68161157d565b92915050565b6000611bf78261156b565b9050919050565b611c0781611bec565b8114611c1257600080fd5b50565b600081519050611c2481611bfe565b92915050565b611c338161166d565b8114611c3e57600080fd5b50565b600081519050611c5081611c2a565b92915050565b600081519050611c65816114f2565b92915050565b600060e08284031215611c8157611c80611bd2565b5b611c8b60e0611971565b90506000611c9b84828501611c41565b6000830152506020611caf84828501611c41565b6020830152506040611cc384828501611c41565b6040830152506060611cd784828501611c41565b6060830152506080611ceb84828501611c41565b60808301525060a0611cff84828501611c56565b60a08301525060c0611d1384828501611c56565b60c08301525092915050565b611d2881611639565b8114611d3357600080fd5b50565b600081519050611d4581611d1f565b92915050565b60006102008284031215611d6257611d61611bd2565b5b611d6d610140611971565b90506000611d7d84828501611bd7565b6000830152506020611d9184828501611bd7565b6020830152506040611da584828501611c15565b6040830152506060611db984828501611c41565b6060830152506080611dcd84828501611c6b565b608083015250610160611de284828501611d36565b60a083015250610180611df784828501611d36565b60c0830152506101a0611e0c84828501611c56565b60e0830152506101c0611e2184828501611c56565b610100830152506101e0611e3784828501611c56565b6101208301525092915050565b60006102008284031215611e5b57611e5a6114de565b5b6000611e6984828501611d4b565b91505092915050565b60078110611e7f57600080fd5b50565b600081519050611e9181611e72565b92915050565b600060208284031215611ead57611eac6114de565b5b6000611ebb84828501611e82565b91505092915050565b600060208284031215611eda57611ed96114de565b5b6000611ee884828501611c56565b91505092915050565b7f5175657374696f6e20616c726561647920657869737473000000000000000000600082015250565b6000611f2760178361176a565b9150611f3282611ef1565b602082019050919050565b60006020820190508181036000830152611f5681611f1a565b9050919050565b6000819050919050565b6000611f82611f7d611f788461154b565b611f5d565b61154b565b9050919050565b6000611f9482611f67565b9050919050565b6000611fa682611f89565b9050919050565b611fb681611f9b565b82525050565b600060a082019050611fd16000830188611aed565b611fde6020830187611735565b8181036040830152611ff08186611814565b9050611fff6060830185611fad565b61200c6080830184611735565b9695505050505050565b600060808201905061202b6000830187611aed565b6120386020830186611735565b818103604083015261204a8185611814565b90506120596060830184611735565b95945050505050565b6000602082019050818103600083015261207c8184611814565b905092915050565b60008190508160005260206000209050919050565b60006020601f8301049050919050565b600082821b905092915050565b6000600883026120e67fffffffffffffffffffffffffffffffffffffffffffffffffffffffffffffffff826120a9565b6120f086836120a9565b95508019841693508086168417925050509392505050565b600061212361211e612119846114e8565b611f5d565b6114e8565b9050919050565b6000819050919050565b61213d83612108565b6121516121498261212a565b8484546120b6565b825550505050565b600090565b612166612159565b612171818484612134565b505050565b5b818110156121955761218a60008261215e565b600181019050612177565b5050565b601f8211156121da576121ab81612084565b6121b484612099565b810160208510156121c3578190505b6121d76121cf85612099565b830182612176565b50505b505050565b600082821c905092915050565b60006121fd600019846008026121df565b1980831691505092915050565b600061221683836121ec565b9150826002028217905092915050565b61222f8261175f565b67ffffffffffffffff81111561224857612247611911565b5b6122528254611b46565b61225d828285612199565b600060209050601f831160018114612290576000841561227e578287015190505b612288858261220a565b8655506122f0565b601f19841661229e86612084565b60005b828110156122c6578489015182556001820191506020850194506020810190506122a1565b868310156122e357848901516122df601f8916826121ec565b8355505b6001600288020188555050505b505050505050565b60008190508160005260206000209050919050565b601f82111561234e5761231f816122f8565b61232884612099565b81016020851015612337578190505b61234b61234385612099565b830182612176565b50505b505050565b61235c826117f8565b67ffffffffffffffff81111561237557612374611911565b5b61237f8254611b46565b61238a82828561230d565b600060209050601f8311600181146123bd57600084156123ab578287015190505b6123b5858261220a565b86555061241d565b601f1984166123cb866122f8565b60005b828110156123f3578489015182556001820191506020850194506020810190506123ce565b86831015612410578489015161240c601f8916826121ec565b8355505b6001600288020188555050505b50505050505056fea26469706673582212204e3df9e368ce016dba7e333617eebac69d4b3a3cdb0d17ce73006d9cf063672b64736f6c634300080f0033",
  "linkReferences": {},
  "deployedLinkReferences": {}
}