{
  "_format": "hh-sol-artifact-1",
  "contractName": "SweepstakeUma",
  "sourceName": "contracts/SweepstakeUma.sol",
  "abi": [
    {
      "inputs": [],
      "stateMutability": "nonpayable",
      "type": "constructor"
    },
    {
      "inputs": [],
      "name": "NotAdmin",
      "type": "error"
    },
    {
      "anonymous": false,
      "inputs": [
        {
          "indexed": true,
          "internalType": "address",
          "name": "admin",
          "type": "address"
        },
        {
          "indexed": true,
          "internalType": "address",
          "name": "newAdminAddress",
          "type": "address"
        }
      ],
      "name": "NewAdmin",
      "type": "event"
    },
    {
      "anonymous": false,
      "inputs": [
        {
          "indexed": true,
          "internalType": "bytes32",
          "name": "questionID",
          "type": "bytes32"
        },
        {
          "indexed": false,
          "internalType": "bytes",
          "name": "ancillaryData",
          "type": "bytes"
        }
      ],
      "name": "QuestionInitialized",
      "type": "event"
    },
    {
      "anonymous": false,
      "inputs": [
        {
          "indexed": true,
          "internalType": "address",
          "name": "admin",
          "type": "address"
        },
        {
          "indexed": true,
          "internalType": "address",
          "name": "removedAdmin",
          "type": "address"
        }
      ],
      "name": "RemovedAdmin",
      "type": "event"
    },
    {
      "inputs": [
        {
          "internalType": "address",
          "name": "admin",
          "type": "address"
        }
      ],
      "name": "addAdmin",
      "outputs": [],
      "stateMutability": "nonpayable",
      "type": "function"
    },
    {
      "inputs": [
        {
          "internalType": "address",
          "name": "",
          "type": "address"
        }
      ],
      "name": "admins",
      "outputs": [
        {
          "internalType": "uint256",
          "name": "",
          "type": "uint256"
        }
      ],
      "stateMutability": "view",
      "type": "function"
    },
    {
      "inputs": [
        {
          "internalType": "bytes32",
          "name": "questionID",
          "type": "bytes32"
        }
      ],
      "name": "getSettledData",
      "outputs": [
        {
          "internalType": "int256",
          "name": "",
          "type": "int256"
        }
      ],
      "stateMutability": "view",
      "type": "function"
    },
    {
      "inputs": [
        {
          "internalType": "address",
          "name": "addr",
          "type": "address"
        }
      ],
      "name": "isAdmin",
      "outputs": [
        {
          "internalType": "bool",
          "name": "",
          "type": "bool"
        }
      ],
      "stateMutability": "view",
      "type": "function"
    },
    {
      "inputs": [],
      "name": "liveness",
      "outputs": [
        {
          "internalType": "uint256",
          "name": "",
          "type": "uint256"
        }
      ],
      "stateMutability": "view",
      "type": "function"
    },
    {
      "inputs": [
        {
          "internalType": "bytes32",
          "name": "",
          "type": "bytes32"
        }
      ],
      "name": "questions",
      "outputs": [
        {
          "internalType": "string",
          "name": "creator",
          "type": "string"
        },
        {
          "internalType": "string",
          "name": "marketID",
          "type": "string"
        },
        {
          "internalType": "bytes",
          "name": "ancillaryData",
          "type": "bytes"
        },
        {
          "internalType": "bool",
          "name": "resolved",
          "type": "bool"
        }
      ],
      "stateMutability": "view",
      "type": "function"
    },
    {
      "inputs": [
        {
          "internalType": "address",
          "name": "admin",
          "type": "address"
        }
      ],
      "name": "removeAdmin",
      "outputs": [],
      "stateMutability": "nonpayable",
      "type": "function"
    },
    {
      "inputs": [],
      "name": "renounceAdmin",
      "outputs": [],
      "stateMutability": "nonpayable",
      "type": "function"
    },
    {
      "inputs": [
        {
          "internalType": "string",
          "name": "creator",
          "type": "string"
        },
        {
          "internalType": "string",
          "name": "marketID",
          "type": "string"
        },
        {
          "internalType": "string",
          "name": "ancillaryString",
          "type": "string"
        }
      ],
      "name": "requestData",
      "outputs": [
        {
          "internalType": "bytes32",
          "name": "questionID",
          "type": "bytes32"
        }
      ],
      "stateMutability": "nonpayable",
      "type": "function"
    },
    {
      "inputs": [
        {
          "internalType": "uint256",
          "name": "_liveness",
          "type": "uint256"
        }
      ],
      "name": "setLiveness",
      "outputs": [],
      "stateMutability": "nonpayable",
      "type": "function"
    },
    {
      "inputs": [
        {
          "internalType": "bytes32",
          "name": "questionID",
          "type": "bytes32"
        }
      ],
      "name": "settleRequest",
      "outputs": [],
      "stateMutability": "nonpayable",
      "type": "function"
    }
  ],
  "bytecode": "0x60806040527338fac33bd20d4c4cce085c0f347153c06cba2968600160006101000a81548173ffffffffffffffffffffffffffffffffffffffff021916908373ffffffffffffffffffffffffffffffffffffffff1602179055507f5945535f4f525f4e4f5f51554552590000000000000000000000000000000000600255600060035534801561008e57600080fd5b5060016000803373ffffffffffffffffffffffffffffffffffffffff1673ffffffffffffffffffffffffffffffffffffffff16815260200190815260200160002081905550601e600581905550611ed5806100ea6000396000f3fe608060405234801561001057600080fd5b50600436106100a95760003560e01c80636ad0690a116100715780636ad0690a1461017657806370480275146101945780638bad0c0a146101b057806394c5d4fe146101ba57806395addb90146101d6578063bdb9e4db14610209576100a9565b8063021eb009146100ae5780631785f53c146100ca57806320147a0b146100e657806324d7806c14610116578063429b62e514610146575b600080fd5b6100c860048036038101906100c391906110e8565b610239565b005b6100e460048036038101906100df9190611173565b6102bb565b005b61010060048036038101906100fb91906111d6565b6103d4565b60405161010d919061121c565b60405180910390f35b610130600480360381019061012b9190611173565b61067f565b60405161013d9190611252565b60405180910390f35b610160600480360381019061015b9190611173565b6106ca565b60405161016d919061127c565b60405180910390f35b61017e6106e2565b60405161018b919061127c565b60405180910390f35b6101ae60048036038101906101a99190611173565b6106e8565b005b6101b8610801565b005b6101d460048036038101906101cf91906111d6565b610919565b005b6101f060048036038101906101eb91906111d6565b610bd7565b6040516102009493929190611385565b60405180910390f35b610223600480360381019061021e9190611574565b610dac565b6040516102309190611634565b60405180910390f35b60016000803373ffffffffffffffffffffffffffffffffffffffff1673ffffffffffffffffffffffffffffffffffffffff16815260200190815260200160002054146102b1576040517f7bfa4b9f00000000000000000000000000000000000000000000000000000000815260040160405180910390fd5b8060058190555050565b60016000803373ffffffffffffffffffffffffffffffffffffffff1673ffffffffffffffffffffffffffffffffffffffff1681526020019081526020016000205414610333576040517f7bfa4b9f00000000000000000000000000000000000000000000000000000000815260040160405180910390fd5b60008060008373ffffffffffffffffffffffffffffffffffffffff1673ffffffffffffffffffffffffffffffffffffffff168152602001908152602001600020819055508073ffffffffffffffffffffffffffffffffffffffff163373ffffffffffffffffffffffffffffffffffffffff167f787a2e12f4a55b658b8f573c32432ee11a5e8b51677d1e1e937aaf6a0bb5776e60405160405180910390a350565b600080600460008481526020019081526020016000206040518060800160405290816000820180546104059061167e565b80601f01602080910402602001604051908101604052809291908181526020018280546104319061167e565b801561047e5780601f106104535761010080835404028352916020019161047e565b820191906000526020600020905b81548152906001019060200180831161046157829003601f168201915b505050505081526020016001820180546104979061167e565b80601f01602080910402602001604051908101604052809291908181526020018280546104c39061167e565b80156105105780601f106104e557610100808354040283529160200191610510565b820191906000526020600020905b8154815290600101906020018083116104f357829003601f168201915b505050505081526020016002820180546105299061167e565b80601f01602080910402602001604051908101604052809291908181526020018280546105559061167e565b80156105a25780601f10610577576101008083540402835291602001916105a2565b820191906000526020600020905b81548152906001019060200180831161058557829003601f168201915b505050505081526020016003820160009054906101000a900460ff1615151515815250509050600160009054906101000a900473ffffffffffffffffffffffffffffffffffffffff1673ffffffffffffffffffffffffffffffffffffffff1663a9904f9b3060025460035485604001516040518563ffffffff1660e01b815260040161063194939291906116be565b61020060405180830381865afa15801561064f573d6000803e3d6000fd5b505050506040513d601f19601f82011682018060405250810190610673919061197c565b60c00151915050919050565b600060016000808473ffffffffffffffffffffffffffffffffffffffff1673ffffffffffffffffffffffffffffffffffffffff16815260200190815260200160002054149050919050565b60006020528060005260406000206000915090505481565b60055481565b60016000803373ffffffffffffffffffffffffffffffffffffffff1673ffffffffffffffffffffffffffffffffffffffff1681526020019081526020016000205414610760576040517f7bfa4b9f00000000000000000000000000000000000000000000000000000000815260040160405180910390fd5b60016000808373ffffffffffffffffffffffffffffffffffffffff1673ffffffffffffffffffffffffffffffffffffffff168152602001908152602001600020819055508073ffffffffffffffffffffffffffffffffffffffff163373ffffffffffffffffffffffffffffffffffffffff167ff9ffabca9c8276e99321725bcb43fb076a6c66a54b7f21c4e8146d8519b417dc60405160405180910390a350565b60016000803373ffffffffffffffffffffffffffffffffffffffff1673ffffffffffffffffffffffffffffffffffffffff1681526020019081526020016000205414610879576040517f7bfa4b9f00000000000000000000000000000000000000000000000000000000815260040160405180910390fd5b60008060003373ffffffffffffffffffffffffffffffffffffffff1673ffffffffffffffffffffffffffffffffffffffff168152602001908152602001600020819055503373ffffffffffffffffffffffffffffffffffffffff163373ffffffffffffffffffffffffffffffffffffffff167f787a2e12f4a55b658b8f573c32432ee11a5e8b51677d1e1e937aaf6a0bb5776e60405160405180910390a3565b6000600460008381526020019081526020016000206040518060800160405290816000820180546109499061167e565b80601f01602080910402602001604051908101604052809291908181526020018280546109759061167e565b80156109c25780601f10610997576101008083540402835291602001916109c2565b820191906000526020600020905b8154815290600101906020018083116109a557829003601f168201915b505050505081526020016001820180546109db9061167e565b80601f0160208091040260200160405190810160405280929190818152602001828054610a079061167e565b8015610a545780601f10610a2957610100808354040283529160200191610a54565b820191906000526020600020905b815481529060010190602001808311610a3757829003601f168201915b50505050508152602001600282018054610a6d9061167e565b80601f0160208091040260200160405190810160405280929190818152602001828054610a999061167e565b8015610ae65780601f10610abb57610100808354040283529160200191610ae6565b820191906000526020600020905b815481529060010190602001808311610ac957829003601f168201915b505050505081526020016003820160009054906101000a900460ff1615151515815250509050600160009054906101000a900473ffffffffffffffffffffffffffffffffffffffff1673ffffffffffffffffffffffffffffffffffffffff16635e9a79a93060025460035485604001516040518563ffffffff1660e01b8152600401610b7594939291906116be565b6020604051808303816000875af1158015610b94573d6000803e3d6000fd5b505050506040513d601f19601f82011682018060405250810190610bb891906119aa565b50610bd3828260000151836020015184604001516001610ffc565b5050565b6004602052806000526040600020600091509050806000018054610bfa9061167e565b80601f0160208091040260200160405190810160405280929190818152602001828054610c269061167e565b8015610c735780601f10610c4857610100808354040283529160200191610c73565b820191906000526020600020905b815481529060010190602001808311610c5657829003601f168201915b505050505090806001018054610c889061167e565b80601f0160208091040260200160405190810160405280929190818152602001828054610cb49061167e565b8015610d015780601f10610cd657610100808354040283529160200191610d01565b820191906000526020600020905b815481529060010190602001808311610ce457829003601f168201915b505050505090806002018054610d169061167e565b80601f0160208091040260200160405190810160405280929190818152602001828054610d429061167e565b8015610d8f5780601f10610d6457610100808354040283529160200191610d8f565b820191906000526020600020905b815481529060010190602001808311610d7257829003601f168201915b5050505050908060030160009054906101000a900460ff16905084565b6000426003819055506000739b4a302a548c7e313c2b74c461db7b84d3074a84905060008084905080805190602001209350610e74848a8a8080601f016020809104026020016040519081016040528093929190818152602001838380828437600081840152601f19601f8201169050808301925050505050505089898080601f016020809104026020016040519081016040528093929190818152602001838380828437600081840152601f19601f82011690508083019250505050505050846000610ffc565b600160009054906101000a900473ffffffffffffffffffffffffffffffffffffffff1673ffffffffffffffffffffffffffffffffffffffff166311df92f16002546003548487876040518663ffffffff1660e01b8152600401610edb959493929190611a36565b6020604051808303816000875af1158015610efa573d6000803e3d6000fd5b505050506040513d601f19601f82011682018060405250810190610f1e91906119aa565b50600160009054906101000a900473ffffffffffffffffffffffffffffffffffffffff1673ffffffffffffffffffffffffffffffffffffffff1663473c45fe600254600354846005546040518563ffffffff1660e01b8152600401610f869493929190611a90565b600060405180830381600087803b158015610fa057600080fd5b505af1158015610fb4573d6000803e3d6000fd5b50505050837ff0f7f4e8df0afc32374e8c8a070dd345a4b6321861869a555976c21703f73d9a82604051610fe89190611adc565b60405180910390a250505095945050505050565b60405180608001604052808581526020018481526020018381526020018215158152506004600087815260200190815260200160002060008201518160000190816110479190611ca0565b50602082015181600101908161105d9190611ca0565b5060408201518160020190816110739190611dcd565b5060608201518160030160006101000a81548160ff0219169083151502179055509050505050505050565b6000604051905090565b600080fd5b600080fd5b6000819050919050565b6110c5816110b2565b81146110d057600080fd5b50565b6000813590506110e2816110bc565b92915050565b6000602082840312156110fe576110fd6110a8565b5b600061110c848285016110d3565b91505092915050565b600073ffffffffffffffffffffffffffffffffffffffff82169050919050565b600061114082611115565b9050919050565b61115081611135565b811461115b57600080fd5b50565b60008135905061116d81611147565b92915050565b600060208284031215611189576111886110a8565b5b60006111978482850161115e565b91505092915050565b6000819050919050565b6111b3816111a0565b81146111be57600080fd5b50565b6000813590506111d0816111aa565b92915050565b6000602082840312156111ec576111eb6110a8565b5b60006111fa848285016111c1565b91505092915050565b6000819050919050565b61121681611203565b82525050565b6000602082019050611231600083018461120d565b92915050565b60008115159050919050565b61124c81611237565b82525050565b60006020820190506112676000830184611243565b92915050565b611276816110b2565b82525050565b6000602082019050611291600083018461126d565b92915050565b600081519050919050565b600082825260208201905092915050565b60005b838110156112d15780820151818401526020810190506112b6565b838111156112e0576000848401525b50505050565b6000601f19601f8301169050919050565b600061130282611297565b61130c81856112a2565b935061131c8185602086016112b3565b611325816112e6565b840191505092915050565b600081519050919050565b600082825260208201905092915050565b600061135782611330565b611361818561133b565b93506113718185602086016112b3565b61137a816112e6565b840191505092915050565b6000608082019050818103600083015261139f81876112f7565b905081810360208301526113b381866112f7565b905081810360408301526113c7818561134c565b90506113d66060830184611243565b95945050505050565b600080fd5b600080fd5b600080fd5b60008083601f840112611404576114036113df565b5b8235905067ffffffffffffffff811115611421576114206113e4565b5b60208301915083600182028301111561143d5761143c6113e9565b5b9250929050565b600080fd5b7f4e487b7100000000000000000000000000000000000000000000000000000000600052604160045260246000fd5b611481826112e6565b810181811067ffffffffffffffff821117156114a05761149f611449565b5b80604052505050565b60006114b361109e565b90506114bf8282611478565b919050565b600067ffffffffffffffff8211156114df576114de611449565b5b6114e8826112e6565b9050602081019050919050565b82818337600083830152505050565b6000611517611512846114c4565b6114a9565b90508281526020810184848401111561153357611532611444565b5b61153e8482856114f5565b509392505050565b600082601f83011261155b5761155a6113df565b5b813561156b848260208601611504565b91505092915050565b6000806000806000606086880312156115905761158f6110a8565b5b600086013567ffffffffffffffff8111156115ae576115ad6110ad565b5b6115ba888289016113ee565b9550955050602086013567ffffffffffffffff8111156115dd576115dc6110ad565b5b6115e9888289016113ee565b9350935050604086013567ffffffffffffffff81111561160c5761160b6110ad565b5b61161888828901611546565b9150509295509295909350565b61162e816111a0565b82525050565b60006020820190506116496000830184611625565b92915050565b7f4e487b7100000000000000000000000000000000000000000000000000000000600052602260045260246000fd5b6000600282049050600182168061169657607f821691505b6020821081036116a9576116a861164f565b5b50919050565b6116b881611135565b82525050565b60006080820190506116d360008301876116af565b6116e06020830186611625565b6116ed604083018561126d565b81810360608301526116ff818461134c565b905095945050505050565b600080fd5b60008151905061171e81611147565b92915050565b600061172f82611135565b9050919050565b61173f81611724565b811461174a57600080fd5b50565b60008151905061175c81611736565b92915050565b61176b81611237565b811461177657600080fd5b50565b60008151905061178881611762565b92915050565b60008151905061179d816110bc565b92915050565b600060e082840312156117b9576117b861170a565b5b6117c360e06114a9565b905060006117d384828501611779565b60008301525060206117e784828501611779565b60208301525060406117fb84828501611779565b604083015250606061180f84828501611779565b606083015250608061182384828501611779565b60808301525060a06118378482850161178e565b60a08301525060c061184b8482850161178e565b60c08301525092915050565b61186081611203565b811461186b57600080fd5b50565b60008151905061187d81611857565b92915050565b6000610200828403121561189a5761189961170a565b5b6118a56101406114a9565b905060006118b58482850161170f565b60008301525060206118c98482850161170f565b60208301525060406118dd8482850161174d565b60408301525060606118f184828501611779565b6060830152506080611905848285016117a3565b60808301525061016061191a8482850161186e565b60a08301525061018061192f8482850161186e565b60c0830152506101a06119448482850161178e565b60e0830152506101c06119598482850161178e565b610100830152506101e061196f8482850161178e565b6101208301525092915050565b60006102008284031215611993576119926110a8565b5b60006119a184828501611883565b91505092915050565b6000602082840312156119c0576119bf6110a8565b5b60006119ce8482850161178e565b91505092915050565b6000819050919050565b60006119fc6119f76119f284611115565b6119d7565b611115565b9050919050565b6000611a0e826119e1565b9050919050565b6000611a2082611a03565b9050919050565b611a3081611a15565b82525050565b600060a082019050611a4b6000830188611625565b611a58602083018761126d565b8181036040830152611a6a818661134c565b9050611a796060830185611a27565b611a86608083018461126d565b9695505050505050565b6000608082019050611aa56000830187611625565b611ab2602083018661126d565b8181036040830152611ac4818561134c565b9050611ad3606083018461126d565b95945050505050565b60006020820190508181036000830152611af6818461134c565b905092915050565b60008190508160005260206000209050919050565b60006020601f8301049050919050565b600082821b905092915050565b600060088302611b607fffffffffffffffffffffffffffffffffffffffffffffffffffffffffffffffff82611b23565b611b6a8683611b23565b95508019841693508086168417925050509392505050565b6000611b9d611b98611b93846110b2565b6119d7565b6110b2565b9050919050565b6000819050919050565b611bb783611b82565b611bcb611bc382611ba4565b848454611b30565b825550505050565b600090565b611be0611bd3565b611beb818484611bae565b505050565b5b81811015611c0f57611c04600082611bd8565b600181019050611bf1565b5050565b601f821115611c5457611c2581611afe565b611c2e84611b13565b81016020851015611c3d578190505b611c51611c4985611b13565b830182611bf0565b50505b505050565b600082821c905092915050565b6000611c7760001984600802611c59565b1980831691505092915050565b6000611c908383611c66565b9150826002028217905092915050565b611ca982611297565b67ffffffffffffffff811115611cc257611cc1611449565b5b611ccc825461167e565b611cd7828285611c13565b600060209050601f831160018114611d0a5760008415611cf8578287015190505b611d028582611c84565b865550611d6a565b601f198416611d1886611afe565b60005b82811015611d4057848901518255600182019150602085019450602081019050611d1b565b86831015611d5d5784890151611d59601f891682611c66565b8355505b6001600288020188555050505b505050505050565b60008190508160005260206000209050919050565b601f821115611dc857611d9981611d72565b611da284611b13565b81016020851015611db1578190505b611dc5611dbd85611b13565b830182611bf0565b50505b505050565b611dd682611330565b67ffffffffffffffff811115611def57611dee611449565b5b611df9825461167e565b611e04828285611d87565b600060209050601f831160018114611e375760008415611e25578287015190505b611e2f8582611c84565b865550611e97565b601f198416611e4586611d72565b60005b82811015611e6d57848901518255600182019150602085019450602081019050611e48565b86831015611e8a5784890151611e86601f891682611c66565b8355505b6001600288020188555050505b50505050505056fea26469706673582212207a498ba66cf72e737f499cbe911a263f4834315692a147e00245c565bbc5a71764736f6c634300080f0033",
  "linkReferences": {},
  "deployedLinkReferences": {}
}